{
  "contractName": "NFTToken",
  "abi": [
    {
      "inputs": [],
      "stateMutability": "nonpayable",
      "type": "constructor"
    },
    {
      "anonymous": false,
      "inputs": [
        {
          "indexed": true,
          "internalType": "address",
          "name": "owner",
          "type": "address"
        },
        {
          "indexed": true,
          "internalType": "address",
          "name": "approved",
          "type": "address"
        },
        {
          "indexed": true,
          "internalType": "uint256",
          "name": "tokenId",
          "type": "uint256"
        }
      ],
      "name": "Approval",
      "type": "event"
    },
    {
      "anonymous": false,
      "inputs": [
        {
          "indexed": true,
          "internalType": "address",
          "name": "owner",
          "type": "address"
        },
        {
          "indexed": true,
          "internalType": "address",
          "name": "operator",
          "type": "address"
        },
        {
          "indexed": false,
          "internalType": "bool",
          "name": "approved",
          "type": "bool"
        }
      ],
      "name": "ApprovalForAll",
      "type": "event"
    },
    {
      "anonymous": false,
      "inputs": [
        {
          "indexed": true,
          "internalType": "address",
          "name": "from",
          "type": "address"
        },
        {
          "indexed": true,
          "internalType": "address",
          "name": "to",
          "type": "address"
        },
        {
          "indexed": true,
          "internalType": "uint256",
          "name": "tokenId",
          "type": "uint256"
        }
      ],
      "name": "Transfer",
      "type": "event"
    },
    {
      "inputs": [
        {
          "internalType": "address",
          "name": "to",
          "type": "address"
        },
        {
          "internalType": "uint256",
          "name": "tokenId",
          "type": "uint256"
        }
      ],
      "name": "approve",
      "outputs": [],
      "stateMutability": "nonpayable",
      "type": "function"
    },
    {
      "inputs": [
        {
          "internalType": "address",
          "name": "owner",
          "type": "address"
        }
      ],
      "name": "balanceOf",
      "outputs": [
        {
          "internalType": "uint256",
          "name": "",
          "type": "uint256"
        }
      ],
      "stateMutability": "view",
      "type": "function",
      "constant": true
    },
    {
      "inputs": [
        {
          "internalType": "uint256",
          "name": "tokenId",
          "type": "uint256"
        }
      ],
      "name": "getApproved",
      "outputs": [
        {
          "internalType": "address",
          "name": "",
          "type": "address"
        }
      ],
      "stateMutability": "view",
      "type": "function",
      "constant": true
    },
    {
      "inputs": [
        {
          "internalType": "address",
          "name": "owner",
          "type": "address"
        },
        {
          "internalType": "address",
          "name": "operator",
          "type": "address"
        }
      ],
      "name": "isApprovedForAll",
      "outputs": [
        {
          "internalType": "bool",
          "name": "",
          "type": "bool"
        }
      ],
      "stateMutability": "view",
      "type": "function",
      "constant": true
    },
    {
      "inputs": [],
      "name": "name",
      "outputs": [
        {
          "internalType": "string",
          "name": "",
          "type": "string"
        }
      ],
      "stateMutability": "view",
      "type": "function",
      "constant": true
    },
    {
      "inputs": [
        {
          "internalType": "uint256",
          "name": "tokenId",
          "type": "uint256"
        }
      ],
      "name": "ownerOf",
      "outputs": [
        {
          "internalType": "address",
          "name": "",
          "type": "address"
        }
      ],
      "stateMutability": "view",
      "type": "function",
      "constant": true
    },
    {
      "inputs": [
        {
          "internalType": "address",
          "name": "from",
          "type": "address"
        },
        {
          "internalType": "address",
          "name": "to",
          "type": "address"
        },
        {
          "internalType": "uint256",
          "name": "tokenId",
          "type": "uint256"
        }
      ],
      "name": "safeTransferFrom",
      "outputs": [],
      "stateMutability": "nonpayable",
      "type": "function"
    },
    {
      "inputs": [
        {
          "internalType": "address",
          "name": "from",
          "type": "address"
        },
        {
          "internalType": "address",
          "name": "to",
          "type": "address"
        },
        {
          "internalType": "uint256",
          "name": "tokenId",
          "type": "uint256"
        },
        {
          "internalType": "bytes",
          "name": "_data",
          "type": "bytes"
        }
      ],
      "name": "safeTransferFrom",
      "outputs": [],
      "stateMutability": "nonpayable",
      "type": "function"
    },
    {
      "inputs": [
        {
          "internalType": "address",
          "name": "operator",
          "type": "address"
        },
        {
          "internalType": "bool",
          "name": "approved",
          "type": "bool"
        }
      ],
      "name": "setApprovalForAll",
      "outputs": [],
      "stateMutability": "nonpayable",
      "type": "function"
    },
    {
      "inputs": [
        {
          "internalType": "bytes4",
          "name": "interfaceId",
          "type": "bytes4"
        }
      ],
      "name": "supportsInterface",
      "outputs": [
        {
          "internalType": "bool",
          "name": "",
          "type": "bool"
        }
      ],
      "stateMutability": "view",
      "type": "function",
      "constant": true
    },
    {
      "inputs": [],
      "name": "symbol",
      "outputs": [
        {
          "internalType": "string",
          "name": "",
          "type": "string"
        }
      ],
      "stateMutability": "view",
      "type": "function",
      "constant": true
    },
    {
      "inputs": [],
      "name": "tokenCounter",
      "outputs": [
        {
          "internalType": "uint256",
          "name": "",
          "type": "uint256"
        }
      ],
      "stateMutability": "view",
      "type": "function",
      "constant": true
    },
    {
      "inputs": [
        {
          "internalType": "uint256",
          "name": "tokenId",
          "type": "uint256"
        }
      ],
      "name": "tokenURI",
      "outputs": [
        {
          "internalType": "string",
          "name": "",
          "type": "string"
        }
      ],
      "stateMutability": "view",
      "type": "function",
      "constant": true
    },
    {
      "inputs": [
        {
          "internalType": "address",
          "name": "from",
          "type": "address"
        },
        {
          "internalType": "address",
          "name": "to",
          "type": "address"
        },
        {
          "internalType": "uint256",
          "name": "tokenId",
          "type": "uint256"
        }
      ],
      "name": "transferFrom",
      "outputs": [],
      "stateMutability": "nonpayable",
      "type": "function"
    },
    {
      "inputs": [],
      "name": "createCollectible",
      "outputs": [
        {
          "internalType": "uint256",
          "name": "",
          "type": "uint256"
        }
      ],
      "stateMutability": "nonpayable",
      "type": "function"
    }
  ],
  "bytecode": "0x60806040523480156200001157600080fd5b506040518060400160405280600881526020017f4e4654546f6b656e0000000000000000000000000000000000000000000000008152506040518060400160405280600481526020017f4e46544b00000000000000000000000000000000000000000000000000000000815250816000908051906020019062000096929190620000c0565b508060019080519060200190620000af929190620000c0565b5050506000600681905550620001d5565b828054620000ce906200019f565b90600052602060002090601f016020900481019282620000f257600085556200013e565b82601f106200010d57805160ff19168380011785556200013e565b828001600101855582156200013e579182015b828111156200013d57825182559160200191906001019062000120565b5b5090506200014d919062000151565b5090565b5b808211156200016c57600081600090555060010162000152565b5090565b7f4e487b7100000000000000000000000000000000000000000000000000000000600052602260045260246000fd5b60006002820490506001821680620001b857607f821691505b60208210811415620001cf57620001ce62000170565b5b50919050565b61276e80620001e56000396000f3fe608060405234801561001057600080fd5b50600436106100f55760003560e01c80636352211e11610097578063b88d4fde11610066578063b88d4fde14610284578063c87b56dd146102a0578063d082e381146102d0578063e985e9c5146102ee576100f5565b80636352211e146101ea57806370a082311461021a57806395d89b411461024a578063a22cb46514610268576100f5565b8063095ea7b3116100d3578063095ea7b3146101785780631e6617101461019457806323b872dd146101b257806342842e0e146101ce576100f5565b806301ffc9a7146100fa57806306fdde031461012a578063081812fc14610148575b600080fd5b610114600480360381019061010f91906116f1565b61031e565b6040516101219190611739565b60405180910390f35b610132610400565b60405161013f91906117ed565b60405180910390f35b610162600480360381019061015d9190611845565b610492565b60405161016f91906118b3565b60405180910390f35b610192600480360381019061018d91906118fa565b610517565b005b61019c610621565b6040516101a99190611949565b60405180910390f35b6101cc60048036038101906101c79190611964565b61064f565b005b6101e860048036038101906101e39190611964565b6106a8565b005b61020460048036038101906101ff9190611845565b6106c8565b60405161021191906118b3565b60405180910390f35b610234600480360381019061022f91906119b7565b61077a565b6040516102419190611949565b60405180910390f35b610252610832565b60405161025f91906117ed565b60405180910390f35b610282600480360381019061027d9190611a10565b6108c4565b005b61029e60048036038101906102999190611b85565b6108d3565b005b6102ba60048036038101906102b59190611845565b61092e565b6040516102c791906117ed565b60405180910390f35b6102d86109d5565b6040516102e59190611949565b60405180910390f35b61030860048036038101906103039190611c08565b6109db565b6040516103159190611739565b60405180910390f35b60007f80ac58cd000000000000000000000000000000000000000000000000000000007bffffffffffffffffffffffffffffffffffffffffffffffffffffffff1916827bffffffffffffffffffffffffffffffffffffffffffffffffffffffff191614806103e957507f5b5e139f000000000000000000000000000000000000000000000000000000007bffffffffffffffffffffffffffffffffffffffffffffffffffffffff1916827bffffffffffffffffffffffffffffffffffffffffffffffffffffffff1916145b806103f957506103f882610a6f565b5b9050919050565b60606000805461040f90611c77565b80601f016020809104026020016040519081016040528092919081815260200182805461043b90611c77565b80156104885780601f1061045d57610100808354040283529160200191610488565b820191906000526020600020905b81548152906001019060200180831161046b57829003601f168201915b5050505050905090565b600061049d82610ad9565b6104dc576040517f08c379a00000000000000000000000000000000000000000000000000000000081526004016104d390611d1b565b60405180910390fd5b6004600083815260200190815260200160002060009054906101000a900473ffffffffffffffffffffffffffffffffffffffff169050919050565b6000610522826106c8565b90508073ffffffffffffffffffffffffffffffffffffffff168373ffffffffffffffffffffffffffffffffffffffff161415610593576040517f08c379a000000000000000000000000000000000000000000000000000000000815260040161058a90611dad565b60405180910390fd5b8073ffffffffffffffffffffffffffffffffffffffff163373ffffffffffffffffffffffffffffffffffffffff1614806105d357506105d281336109db565b5b610612576040517f08c379a000000000000000000000000000000000000000000000000000000000815260040161060990611e3f565b60405180910390fd5b61061c8383610b45565b505050565b60008060065490506106333382610bfe565b60016006546106429190611e8e565b6006819055508091505090565b6106593382610c1c565b610698576040517f08c379a000000000000000000000000000000000000000000000000000000000815260040161068f90611f56565b60405180910390fd5b6106a3838383610cfa565b505050565b6106c3838383604051806020016040528060008152506108d3565b505050565b6000806002600084815260200190815260200160002060009054906101000a900473ffffffffffffffffffffffffffffffffffffffff169050600073ffffffffffffffffffffffffffffffffffffffff168173ffffffffffffffffffffffffffffffffffffffff161415610771576040517f08c379a000000000000000000000000000000000000000000000000000000000815260040161076890611fe8565b60405180910390fd5b80915050919050565b60008073ffffffffffffffffffffffffffffffffffffffff168273ffffffffffffffffffffffffffffffffffffffff1614156107eb576040517f08c379a00000000000000000000000000000000000000000000000000000000081526004016107e29061207a565b60405180910390fd5b600360008373ffffffffffffffffffffffffffffffffffffffff1673ffffffffffffffffffffffffffffffffffffffff168152602001908152602001600020549050919050565b60606001805461084190611c77565b80601f016020809104026020016040519081016040528092919081815260200182805461086d90611c77565b80156108ba5780601f1061088f576101008083540402835291602001916108ba565b820191906000526020600020905b81548152906001019060200180831161089d57829003601f168201915b5050505050905090565b6108cf338383610f61565b5050565b6108dd3383610c1c565b61091c576040517f08c379a000000000000000000000000000000000000000000000000000000000815260040161091390611f56565b60405180910390fd5b610928848484846110ce565b50505050565b606061093982610ad9565b610978576040517f08c379a000000000000000000000000000000000000000000000000000000000815260040161096f9061210c565b60405180910390fd5b600061098261112a565b905060008151116109a257604051806020016040528060008152506109cd565b806109ac84611141565b6040516020016109bd929190612168565b6040516020818303038152906040525b915050919050565b60065481565b6000600560008473ffffffffffffffffffffffffffffffffffffffff1673ffffffffffffffffffffffffffffffffffffffff16815260200190815260200160002060008373ffffffffffffffffffffffffffffffffffffffff1673ffffffffffffffffffffffffffffffffffffffff16815260200190815260200160002060009054906101000a900460ff16905092915050565b60007f01ffc9a7000000000000000000000000000000000000000000000000000000007bffffffffffffffffffffffffffffffffffffffffffffffffffffffff1916827bffffffffffffffffffffffffffffffffffffffffffffffffffffffff1916149050919050565b60008073ffffffffffffffffffffffffffffffffffffffff166002600084815260200190815260200160002060009054906101000a900473ffffffffffffffffffffffffffffffffffffffff1673ffffffffffffffffffffffffffffffffffffffff1614159050919050565b816004600083815260200190815260200160002060006101000a81548173ffffffffffffffffffffffffffffffffffffffff021916908373ffffffffffffffffffffffffffffffffffffffff160217905550808273ffffffffffffffffffffffffffffffffffffffff16610bb8836106c8565b73ffffffffffffffffffffffffffffffffffffffff167f8c5be1e5ebec7d5bd14f71427d1e84f3dd0314c0f7b2291e5b200ac8c7c3b92560405160405180910390a45050565b610c188282604051806020016040528060008152506112a2565b5050565b6000610c2782610ad9565b610c66576040517f08c379a0000000000000000000000000000000000000000000000000000000008152600401610c5d906121fe565b60405180910390fd5b6000610c71836106c8565b90508073ffffffffffffffffffffffffffffffffffffffff168473ffffffffffffffffffffffffffffffffffffffff161480610ce057508373ffffffffffffffffffffffffffffffffffffffff16610cc884610492565b73ffffffffffffffffffffffffffffffffffffffff16145b80610cf15750610cf081856109db565b5b91505092915050565b8273ffffffffffffffffffffffffffffffffffffffff16610d1a826106c8565b73ffffffffffffffffffffffffffffffffffffffff1614610d70576040517f08c379a0000000000000000000000000000000000000000000000000000000008152600401610d6790612290565b60405180910390fd5b600073ffffffffffffffffffffffffffffffffffffffff168273ffffffffffffffffffffffffffffffffffffffff161415610de0576040517f08c379a0000000000000000000000000000000000000000000000000000000008152600401610dd790612322565b60405180910390fd5b610deb8383836112fd565b610df6600082610b45565b6001600360008573ffffffffffffffffffffffffffffffffffffffff1673ffffffffffffffffffffffffffffffffffffffff1681526020019081526020016000206000828254610e469190612342565b925050819055506001600360008473ffffffffffffffffffffffffffffffffffffffff1673ffffffffffffffffffffffffffffffffffffffff1681526020019081526020016000206000828254610e9d9190611e8e565b92505081905550816002600083815260200190815260200160002060006101000a81548173ffffffffffffffffffffffffffffffffffffffff021916908373ffffffffffffffffffffffffffffffffffffffff160217905550808273ffffffffffffffffffffffffffffffffffffffff168473ffffffffffffffffffffffffffffffffffffffff167fddf252ad1be2c89b69c2b068fc378daa952ba7f163c4a11628f55a4df523b3ef60405160405180910390a4610f5c838383611302565b505050565b8173ffffffffffffffffffffffffffffffffffffffff168373ffffffffffffffffffffffffffffffffffffffff161415610fd0576040517f08c379a0000000000000000000000000000000000000000000000000000000008152600401610fc7906123c2565b60405180910390fd5b80600560008573ffffffffffffffffffffffffffffffffffffffff1673ffffffffffffffffffffffffffffffffffffffff16815260200190815260200160002060008473ffffffffffffffffffffffffffffffffffffffff1673ffffffffffffffffffffffffffffffffffffffff16815260200190815260200160002060006101000a81548160ff0219169083151502179055508173ffffffffffffffffffffffffffffffffffffffff168373ffffffffffffffffffffffffffffffffffffffff167f17307eab39ab6107e8899845ad3d59bd9653f200f220920489ca2b5937696c31836040516110c19190611739565b60405180910390a3505050565b6110d9848484610cfa565b6110e584848484611307565b611124576040517f08c379a000000000000000000000000000000000000000000000000000000000815260040161111b90612454565b60405180910390fd5b50505050565b606060405180602001604052806000815250905090565b60606000821415611189576040518060400160405280600181526020017f3000000000000000000000000000000000000000000000000000000000000000815250905061129d565b600082905060005b600082146111bb5780806111a490612474565b915050600a826111b491906124ec565b9150611191565b60008167ffffffffffffffff8111156111d7576111d6611a5a565b5b6040519080825280601f01601f1916602001820160405280156112095781602001600182028036833780820191505090505b5090505b60008514611296576001826112229190612342565b9150600a85611231919061251d565b603061123d9190611e8e565b60f81b8183815181106112535761125261254e565b5b60200101907effffffffffffffffffffffffffffffffffffffffffffffffffffffffffffff1916908160001a905350600a8561128f91906124ec565b945061120d565b8093505050505b919050565b6112ac8383611488565b6112b96000848484611307565b6112f8576040517f08c379a00000000000000000000000000000000000000000000000000000000081526004016112ef90612454565b60405180910390fd5b505050565b505050565b505050565b60006113288473ffffffffffffffffffffffffffffffffffffffff16611662565b1561147b578373ffffffffffffffffffffffffffffffffffffffff1663150b7a02338786866040518563ffffffff1660e01b815260040161136c94939291906125d2565b6020604051808303816000875af19250505080156113a857506040513d601f19601f820116820180604052508101906113a59190612633565b60015b61142b573d80600081146113d8576040519150601f19603f3d011682016040523d82523d6000602084013e6113dd565b606091505b50600081511415611423576040517f08c379a000000000000000000000000000000000000000000000000000000000815260040161141a90612454565b60405180910390fd5b805181602001fd5b63150b7a0260e01b7bffffffffffffffffffffffffffffffffffffffffffffffffffffffff1916817bffffffffffffffffffffffffffffffffffffffffffffffffffffffff191614915050611480565b600190505b949350505050565b600073ffffffffffffffffffffffffffffffffffffffff168273ffffffffffffffffffffffffffffffffffffffff1614156114f8576040517f08c379a00000000000000000000000000000000000000000000000000000000081526004016114ef906126ac565b60405180910390fd5b61150181610ad9565b15611541576040517f08c379a000000000000000000000000000000000000000000000000000000000815260040161153890612718565b60405180910390fd5b61154d600083836112fd565b6001600360008473ffffffffffffffffffffffffffffffffffffffff1673ffffffffffffffffffffffffffffffffffffffff168152602001908152602001600020600082825461159d9190611e8e565b92505081905550816002600083815260200190815260200160002060006101000a81548173ffffffffffffffffffffffffffffffffffffffff021916908373ffffffffffffffffffffffffffffffffffffffff160217905550808273ffffffffffffffffffffffffffffffffffffffff16600073ffffffffffffffffffffffffffffffffffffffff167fddf252ad1be2c89b69c2b068fc378daa952ba7f163c4a11628f55a4df523b3ef60405160405180910390a461165e60008383611302565b5050565b6000808273ffffffffffffffffffffffffffffffffffffffff163b119050919050565b6000604051905090565b600080fd5b600080fd5b60007fffffffff0000000000000000000000000000000000000000000000000000000082169050919050565b6116ce81611699565b81146116d957600080fd5b50565b6000813590506116eb816116c5565b92915050565b6000602082840312156117075761170661168f565b5b6000611715848285016116dc565b91505092915050565b60008115159050919050565b6117338161171e565b82525050565b600060208201905061174e600083018461172a565b92915050565b600081519050919050565b600082825260208201905092915050565b60005b8381101561178e578082015181840152602081019050611773565b8381111561179d576000848401525b50505050565b6000601f19601f8301169050919050565b60006117bf82611754565b6117c9818561175f565b93506117d9818560208601611770565b6117e2816117a3565b840191505092915050565b6000602082019050818103600083015261180781846117b4565b905092915050565b6000819050919050565b6118228161180f565b811461182d57600080fd5b50565b60008135905061183f81611819565b92915050565b60006020828403121561185b5761185a61168f565b5b600061186984828501611830565b91505092915050565b600073ffffffffffffffffffffffffffffffffffffffff82169050919050565b600061189d82611872565b9050919050565b6118ad81611892565b82525050565b60006020820190506118c860008301846118a4565b92915050565b6118d781611892565b81146118e257600080fd5b50565b6000813590506118f4816118ce565b92915050565b600080604083850312156119115761191061168f565b5b600061191f858286016118e5565b925050602061193085828601611830565b9150509250929050565b6119438161180f565b82525050565b600060208201905061195e600083018461193a565b92915050565b60008060006060848603121561197d5761197c61168f565b5b600061198b868287016118e5565b935050602061199c868287016118e5565b92505060406119ad86828701611830565b9150509250925092565b6000602082840312156119cd576119cc61168f565b5b60006119db848285016118e5565b91505092915050565b6119ed8161171e565b81146119f857600080fd5b50565b600081359050611a0a816119e4565b92915050565b60008060408385031215611a2757611a2661168f565b5b6000611a35858286016118e5565b9250506020611a46858286016119fb565b9150509250929050565b600080fd5b600080fd5b7f4e487b7100000000000000000000000000000000000000000000000000000000600052604160045260246000fd5b611a92826117a3565b810181811067ffffffffffffffff82111715611ab157611ab0611a5a565b5b80604052505050565b6000611ac4611685565b9050611ad08282611a89565b919050565b600067ffffffffffffffff821115611af057611aef611a5a565b5b611af9826117a3565b9050602081019050919050565b82818337600083830152505050565b6000611b28611b2384611ad5565b611aba565b905082815260208101848484011115611b4457611b43611a55565b5b611b4f848285611b06565b509392505050565b600082601f830112611b6c57611b6b611a50565b5b8135611b7c848260208601611b15565b91505092915050565b60008060008060808587031215611b9f57611b9e61168f565b5b6000611bad878288016118e5565b9450506020611bbe878288016118e5565b9350506040611bcf87828801611830565b925050606085013567ffffffffffffffff811115611bf057611bef611694565b5b611bfc87828801611b57565b91505092959194509250565b60008060408385031215611c1f57611c1e61168f565b5b6000611c2d858286016118e5565b9250506020611c3e858286016118e5565b9150509250929050565b7f4e487b7100000000000000000000000000000000000000000000000000000000600052602260045260246000fd5b60006002820490506001821680611c8f57607f821691505b60208210811415611ca357611ca2611c48565b5b50919050565b7f4552433732313a20617070726f76656420717565727920666f72206e6f6e657860008201527f697374656e7420746f6b656e0000000000000000000000000000000000000000602082015250565b6000611d05602c8361175f565b9150611d1082611ca9565b604082019050919050565b60006020820190508181036000830152611d3481611cf8565b9050919050565b7f4552433732313a20617070726f76616c20746f2063757272656e74206f776e6560008201527f7200000000000000000000000000000000000000000000000000000000000000602082015250565b6000611d9760218361175f565b9150611da282611d3b565b604082019050919050565b60006020820190508181036000830152611dc681611d8a565b9050919050565b7f4552433732313a20617070726f76652063616c6c6572206973206e6f74206f7760008201527f6e6572206e6f7220617070726f76656420666f7220616c6c0000000000000000602082015250565b6000611e2960388361175f565b9150611e3482611dcd565b604082019050919050565b60006020820190508181036000830152611e5881611e1c565b9050919050565b7f4e487b7100000000000000000000000000000000000000000000000000000000600052601160045260246000fd5b6000611e998261180f565b9150611ea48361180f565b9250827fffffffffffffffffffffffffffffffffffffffffffffffffffffffffffffffff03821115611ed957611ed8611e5f565b5b828201905092915050565b7f4552433732313a207472616e736665722063616c6c6572206973206e6f74206f60008201527f776e6572206e6f7220617070726f766564000000000000000000000000000000602082015250565b6000611f4060318361175f565b9150611f4b82611ee4565b604082019050919050565b60006020820190508181036000830152611f6f81611f33565b9050919050565b7f4552433732313a206f776e657220717565727920666f72206e6f6e657869737460008201527f656e7420746f6b656e0000000000000000000000000000000000000000000000602082015250565b6000611fd260298361175f565b9150611fdd82611f76565b604082019050919050565b6000602082019050818103600083015261200181611fc5565b9050919050565b7f4552433732313a2062616c616e636520717565727920666f7220746865207a6560008201527f726f206164647265737300000000000000000000000000000000000000000000602082015250565b6000612064602a8361175f565b915061206f82612008565b604082019050919050565b6000602082019050818103600083015261209381612057565b9050919050565b7f4552433732314d657461646174613a2055524920717565727920666f72206e6f60008201527f6e6578697374656e7420746f6b656e0000000000000000000000000000000000602082015250565b60006120f6602f8361175f565b91506121018261209a565b604082019050919050565b60006020820190508181036000830152612125816120e9565b9050919050565b600081905092915050565b600061214282611754565b61214c818561212c565b935061215c818560208601611770565b80840191505092915050565b60006121748285612137565b91506121808284612137565b91508190509392505050565b7f4552433732313a206f70657261746f7220717565727920666f72206e6f6e657860008201527f697374656e7420746f6b656e0000000000000000000000000000000000000000602082015250565b60006121e8602c8361175f565b91506121f38261218c565b604082019050919050565b60006020820190508181036000830152612217816121db565b9050919050565b7f4552433732313a207472616e736665722066726f6d20696e636f72726563742060008201527f6f776e6572000000000000000000000000000000000000000000000000000000602082015250565b600061227a60258361175f565b91506122858261221e565b604082019050919050565b600060208201905081810360008301526122a98161226d565b9050919050565b7f4552433732313a207472616e7366657220746f20746865207a65726f2061646460008201527f7265737300000000000000000000000000000000000000000000000000000000602082015250565b600061230c60248361175f565b9150612317826122b0565b604082019050919050565b6000602082019050818103600083015261233b816122ff565b9050919050565b600061234d8261180f565b91506123588361180f565b92508282101561236b5761236a611e5f565b5b828203905092915050565b7f4552433732313a20617070726f766520746f2063616c6c657200000000000000600082015250565b60006123ac60198361175f565b91506123b782612376565b602082019050919050565b600060208201905081810360008301526123db8161239f565b9050919050565b7f4552433732313a207472616e7366657220746f206e6f6e20455243373231526560008201527f63656976657220696d706c656d656e7465720000000000000000000000000000602082015250565b600061243e60328361175f565b9150612449826123e2565b604082019050919050565b6000602082019050818103600083015261246d81612431565b9050919050565b600061247f8261180f565b91507fffffffffffffffffffffffffffffffffffffffffffffffffffffffffffffffff8214156124b2576124b1611e5f565b5b600182019050919050565b7f4e487b7100000000000000000000000000000000000000000000000000000000600052601260045260246000fd5b60006124f78261180f565b91506125028361180f565b925082612512576125116124bd565b5b828204905092915050565b60006125288261180f565b91506125338361180f565b925082612543576125426124bd565b5b828206905092915050565b7f4e487b7100000000000000000000000000000000000000000000000000000000600052603260045260246000fd5b600081519050919050565b600082825260208201905092915050565b60006125a48261257d565b6125ae8185612588565b93506125be818560208601611770565b6125c7816117a3565b840191505092915050565b60006080820190506125e760008301876118a4565b6125f460208301866118a4565b612601604083018561193a565b81810360608301526126138184612599565b905095945050505050565b60008151905061262d816116c5565b92915050565b6000602082840312156126495761264861168f565b5b60006126578482850161261e565b91505092915050565b7f4552433732313a206d696e7420746f20746865207a65726f2061646472657373600082015250565b600061269660208361175f565b91506126a182612660565b602082019050919050565b600060208201905081810360008301526126c581612689565b9050919050565b7f4552433732313a20746f6b656e20616c7265616479206d696e74656400000000600082015250565b6000612702601c8361175f565b915061270d826126cc565b602082019050919050565b60006020820190508181036000830152612731816126f5565b905091905056fea2646970667358221220ad7a2f490ee676fe7e489dd397678305ca468b6f606d3ea534fb5704ac1ba32664736f6c634300080b0033",
  "immutableReferences": {},
  "source": "// SPDX-License-Identifier: MIT\r\npragma solidity >=0.4.22 <0.9.0;\r\n\r\nimport \"./ERC721.sol\";\r\n\r\ncontract NFTToken is ERC721 {\r\n\r\n    uint256 public tokenCounter;\r\n    \r\n    constructor() ERC721 (\"NFTToken\", \"NFTK\") {\r\n        tokenCounter = 0;\r\n    }\r\n\r\n    function createCollectible() public returns (uint256){\r\n        uint256 tokenID = tokenCounter;\r\n        _safeMint(msg.sender, tokenID);\r\n        tokenCounter = tokenCounter + 1;\r\n        return tokenID;\r\n    }\r\n}\r\n\r\n",
  "sourcePath": "C:\\Users\\Ammar Voloder\\Desktop\\master-implementation\\Ethereum\\NFTToken\\contracts\\NFTToken.sol",
  "compiler": {
    "name": "solc",
    "version": "0.8.11+commit.d7f03943.Emscripten.clang"
  },
  "schemaVersion": "3.4.4",
  "updatedAt": "2022-02-24T21:23:21.837Z",
  "networkType": "ethereum",
  "devdoc": {
    "kind": "dev",
    "methods": {
      "approve(address,uint256)": {
        "details": "See {IERC721-approve}."
      },
      "balanceOf(address)": {
        "details": "See {IERC721-balanceOf}."
      },
      "getApproved(uint256)": {
        "details": "See {IERC721-getApproved}."
      },
      "isApprovedForAll(address,address)": {
        "details": "See {IERC721-isApprovedForAll}."
      },
      "name()": {
        "details": "See {IERC721Metadata-name}."
      },
      "ownerOf(uint256)": {
        "details": "See {IERC721-ownerOf}."
      },
      "safeTransferFrom(address,address,uint256)": {
        "details": "See {IERC721-safeTransferFrom}."
      },
      "safeTransferFrom(address,address,uint256,bytes)": {
        "details": "See {IERC721-safeTransferFrom}."
      },
      "setApprovalForAll(address,bool)": {
        "details": "See {IERC721-setApprovalForAll}."
      },
      "supportsInterface(bytes4)": {
        "details": "See {IERC165-supportsInterface}."
      },
      "symbol()": {
        "details": "See {IERC721Metadata-symbol}."
      },
      "tokenURI(uint256)": {
        "details": "See {IERC721Metadata-tokenURI}."
      },
      "transferFrom(address,address,uint256)": {
        "details": "See {IERC721-transferFrom}."
      }
    },
    "version": 1
  },
  "userdoc": {
    "kind": "user",
    "methods": {},
    "version": 1
  }
}